:020000040800F2
:1000000080210020ED020008791D0008BD1B0008BA
:10001000751D0008230600082526000800000000C2
:100020000000000000000000000000002D02000899
:10003000270600080000000089020008AB1F000826
:100040000703000807030008070300080703000868
:100050000703000807030008070300080703000858
:100060000703000807030008070300080703000848
:100070000703000807030008070300080703000838
:100080000703000807030008070300080703000828
:100090000703000807030008070300080703000818
:1000A0000703000807030008070300080703000808
:1000B000070300080000000000000000070300081C
:1000C00007030008070300080703000807030008E8
:1000D00007030008070300080703000807030008D8
:1000E00007030008070300080000000000000000EC
:1000F0000000000000000000000000000000000000
:1001000000000000070300080000000007030008CB
:1001100000000000000000000703000807030008BB
:100120000703000807030008070300080703000887
:1001300007030008000000000000000000000000AD
:100140000703000807030008070300080000000079
:100150000703000807030008070300080703000857
:100160000703000807030008070300080000000059
:10017000070300080703000800000000000000005B
:1001800007030008070300080703000800F002F84F
:1001900000F03CF80AA090E8000C82448344AAF1E5
:1001A0000107DA4501D100F031F8AFF2090EBAE8E3
:1001B0000F0013F0010F18BFFB1A43F0010318479B
:1001C0004845000068450000103A24BF78C878C14F
:1001D000FAD8520724BF30C830C144BF04680C604D
:1001E000704700000023002400250026103A28BF95
:1001F00078C1FBD8520728BF30C148BF0B60704799
:100200001FB504F03FFA1FBD10B510BD00F0D0F9C6
:100210001146FFF7F5FF02F027FA00F0EEF903B4FC
:10022000FFF7F2FF03BC00F0F5F900002C4B196852
:100230000868B0E8F04F80F30988BFF36F8F4FF084
:10024000000080F311887047000000000848006833
:10025000006880F308884FF0000080F3148862B6CD
:1002600061B6BFF34F8FBFF36F8F00DF00BF00BFDA
:1002700008ED00E0DFF80C00016841F47001016056
:10028000704700BF88ED00E0EFF30980BFF36F8F88
:10029000134B1A681EF0100F08BF20ED108A20E9DA
:1002A000F04F106009B44FF0500080F31188BFF395
:1002B0004F8FBFF36F8F03F0E1FA4FF0000080F330
:1002C000118809BC19680868B0E8F04F1EF0100FDB
:1002D00008BFB0EC108A80F30988BFF36F8F7047B6
:1002E00014000020EFF305807047000009488047A4
:1002F00009480047FEE7FEE7FEE7FEE7FEE7FEE708
:10030000FEE7FEE7FEE7FEE704480549054A064B1F
:1003100070470000312000088D010008801B00207C
:1003200080210020801D0020801D002053EA020C47
:1003300000F069802DE9F04B4FF00006002B1FBF45
:10034000B3FA83F503FA05F424FA05F65E4012BF0A
:100350001643B2FA82F502FA05F4C5F120051EBF74
:1003600022FA05FC44EA0C04203556EA044C4FEA14
:10037000144418BF641C4FF000084FF0000990426D
:1003800071EB030C39D3002919BFB1FA81F701FAD7
:1003900007F6B0FA80F700FA07F6C7F120071EBF8C
:1003A00020FA07FC46EA0C062037B6FBF4FCA7EB64
:1003B0000507103F07F01F0BCBF120060CFA0BFBD3
:1003C0002CFA06F644BFB3460026202FA4BF5E4693
:1003D0004FF0000B5BEA060C08BF4FF0010B19EB66
:1003E0000B09ABFB027C48EB0608C01B06FB02CCEA
:1003F0000BFB03CC71EB0C01C1E70B4602464146F7
:100400004846BDE8F08B13B54FF000004FF00001F7
:10041000AFF30080BDE81C407047032A40F23080F3
:1004200010F0030C00F0158011F8013BBCF1020F35
:10043000624498BF11F801CB00F8013B38BF11F8B6
:10044000013BA2F1040298BF00F801CB38BF00F8CD
:10045000013B11F0030300F05780083AC0F0088018
:1004600051F8043B083A51F804CBA0E80810F5E72E
:10047000121D5CBF51F8043B40F8043BAFF3008011
:10048000D20724BF11F8013B11F801CB48BF11F886
:10049000012B24BF00F8013B00F801CB48BF00F856
:1004A000012B704702F0FF0343EA032242EA0242B3
:1004B00000F05EB84FF0000200B513469446964631
:1004C000203922BFA0E80C50A0E80C50B1F1200167
:1004D000BFF4F7AF090728BFA0E80C5048BF0CC015
:1004E0005DF804EB890028BF40F8042B08BF704773
:1004F00048BF20F8022B11F0804F18BF00F8012BE5
:10050000704770477047704710B5203AC0F00B80B5
:10051000B1E81850203AA0E81850B1E81850A0E807
:100520001850BFF4F5AF5FEA027C24BFB1E8185061
:10053000A0E8185044BF18C918C0BDE810405FEAD1
:10054000827C24BF51F8043B40F8043B08BF70474D
:10055000D20728BF31F8023B48BF11F8012B28BF52
:1005600020F8023B48BF00F8012B70474FF0000213
:100570000429C0F0128010F0030C3FF49DAFCCF1C1
:10058000040CBCF1020F18BF00F8012BA8BF20F823
:10059000022BA1EB0C01FFF78FBF5FEAC17C24BFE8
:1005A00000F8012B00F8012B48BF00F8012B704721
:1005B000754600F02BF8AE4605006946534620F01C
:1005C0000700854618B020B5FFF79EFEBDE8204025
:1005D0004FF000064FF000074FF000084FF0000BFF
:1005E00021F00701AC46ACE8C009ACE8C009ACE8B2
:1005F000C009ACE8C0098D46704710B50446AFF39A
:1006000000802046BDE81040FFF709BE0048704753
:100610001C1B002001491820ABBEFEE7260002008B
:10062000704700BFFEE7704772B600BFFEE70000EC
:1006300078B503460A460021C5E001268E401568BC
:1006400005EA0604002C73D0157905F00305012D89
:1006500004D0157905F00305022D13D198684E00DA
:100660000325B540A8434E00D568B540284398609F
:10067000586801258D40A8431579C5F300158D40B4
:1006800028435860157905F00305032D09D0D86873
:100690004E000325B540A8434E009568B540284359
:1006A000D860157905F00305022D13D1CE0803F1AA
:1006B000200555F826004D07EE0E0F25B540A8433E
:1006C0004E07F60E1569B5402843CE0803F1200504
:1006D00045F8260018684E000325B540A843157953
:1006E00005F003054E00B54028431860556805F431
:1006F0004035002D66D000BF364D2D6E45F001050A
:10070000344E356635462D6E05F00105009500BF67
:1007100000BF4FEAB6358E0855F826008D072E0F1C
:100720000F25B540A843B3F1904F02D1002515E045
:1007300048E0294DAB4201D101250FE0274DAB42E6
:1007400001D102250AE0264DAB4201D1032505E087
:10075000244DAB4201D1042500E007258E07360F5A
:10076000B5402843204D8E0845F826001F4D2868C7
:10077000A043556805F4801505B120431B4D286042
:100780002D1D2868A043556805F4001505B12043C8
:10079000164D2D1D2860154D2D1F2868A043556846
:1007A00005F4003505B12043104D2D1F28602D1F85
:1007B0002868A043556805F4803505B120430B4DEA
:1007C000083D2860491C1568CD40002D7FF435AFE9
:1007D00078BD0000001002400004004800080048F6
:1007E000000C0048001000480800014008040140C7
:1007F0000AB1816100E08162704700000148006831
:10080000704700000400002003480068034909788D
:100810000844014908607047040000200C000020D3
:1008200010B50024032000F099F80F2000F008F81C
:1008300008B1012401E000F02FF8204610BD0000AF
:1008400070B50446002511480078D8B10F480078EB
:100850004FF47A71B1FBF0F00D490968B1FBF0F685
:10086000304601F077F858B9102C07D20022214603
:10087000501E00F035F80748046004E0012502E04E
:10088000012500E00125284670BD00000C00002075
:10089000100000200800002008B500BF0F48006EBF
:1008A00040F001000D4908660846006E00F00100A6
:1008B000009000BF00BF00BF0846806D40F0805030
:1008C00088650846806D00F08050009000BF00BF32
:1008D00000220F21901E00F003F808BD0010024016
:1008E0002DE9F05F80460D461646002701F09CFE7C
:1008F000074639462A46334601F00700C0F1070A89
:10090000BAF1040F02D94FF0040A01E0C0F1070A5E
:10091000D14600F1040ABAF1070F02D24FF0000AE3
:1009200001E0A0F1030AD4464FF0010A0AFA09FADD
:10093000AAF1010A0AEA020A0AFA0CFA4FF0010BBC
:100940000BFA0CFBABF1010B0BEA030B4AEA0B04AD
:100950002146404601F070FEBDE8F09F00BF00F068
:100960000702064B19684FF6FF031940044B0B436F
:1009700043EA0221014B196000BF70470CED00E013
:100980000000FA050246B2F5007F2AD11D48006832
:1009900000F4C060B0F5007F32D01A48006820F43F
:1009A000C06040F40070174B18601748006832238D
:1009B0005843164BB0FBF3F0411C00E0491E1148B0
:1009C000406900F48060B0F5806F01D10029F5D155
:1009D0000C48406900F48060B0F5806F10D10320AE
:1009E00070470848006800F4C060B0F5806F07D019
:1009F0000448006820F4C06040F48060014B186037
:100A00000020EDE7007000401000002040420F0081
:100A10000248006800F4C0607047000000700040A9
:100A20002DE9F84304460025A846208800F400601C
:100A3000B0F5006F26D1606C68B1B0F5000F03D03F
:100A4000B0F5400F0ED10CE0D548C06840F48030BE
:100A5000D349C86008E00021201D01F08FF9054648
:100A600002E001E0012500BF00BF55B9CC48883045
:100A7000006820F44000616C0843C949C1F888004F
:100A800000E0A846206800F40030B0F5003F75D1C2
:100A90004FF00009C248806D012121EA107078B141
:100AA00000BFBF48806D40F08050BD498865084652
:100AB000806D00F08050009000BF00BF4FF0010932
:100AC000B848006840F48070B6490860FFF796FEA9
:100AD000074606E0FFF792FEC01B022801D9032556
:100AE00005E0B048006800F480700028F2D000BF34
:100AF0007DBBAB489030006800F44076CEB1A06D6D
:100B0000B04216D0A6489030006820F44076A44841
:100B1000D0F8900040F48030A149C1F89000084618
:100B2000D0F8900020F48030C1F890000846C0F85A
:100B3000906006F00100A8B1FFF760FE074609E0EB
:100B4000FFF75CFEC01B41F28831884202D90325C1
:100B500007E016E092489030006800F0020000289C
:100B6000EED000BF5DB98E489030006820F4407030
:100B7000A16D08438A49C1F8900003E00CE0A84643
:100B800000E0A846B9F1010F05D18548806D20F03D
:100B900080508349886500BF207800F0010048B18B
:100BA0007F488830006820F00300216A08437C49B0
:100BB000C1F88800207800F00200022809D17848A6
:100BC0008830006820F00C00616A08437449C1F85D
:100BD0008800207800F00400042809D1704888308B
:100BE000006820F03000A16A08436D49C1F8880010
:100BF000207800F02000202809D16948883000685A
:100C000020F44060E16A08436549C1F88800208803
:100C100000F40070B0F5007F09D1614888300068A9
:100C200020F44020E16B08435D49C1F8880020882A
:100C300000F48060B0F5806F09D1594888300068B1
:100C400020F44010216C08435549C1F888002078F1
:100C500000F04000402809D151488830006820F455
:100C60004050216B08434E49C1F88800207800F0BD
:100C70008000802809D14A488830006820F440402C
:100C8000616B08434649C1F88800208800F48070F1
:100C9000B0F5807F09D142488830006820F44030A8
:100CA000A16B08433E49C1F88800206800F4002089
:100CB000B0F5002F1FD13A488830006820F040601E
:100CC000A16C0843364988310860A06CB0F1006F10
:100CD00006D13348C06840F480103149C8600AE04A
:100CE000A06CB0F1806F06D10121201D01F046F803
:100CF000054605B1A846206800F48020B0F5802F95
:100D00001FD127488830006820F04060E16C08431C
:100D1000234988310860E06CB0F1006F06D12048AB
:100D2000C06840F480101E49C8600AE0E06CB0F171
:100D3000806F06D10121201D01F020F8054605B184
:100D4000A846208800F48040B0F5804F14D11448A4
:100D50008830006820F04050216D084310498831E8
:100D60000860206DB0F1805F06D10221201D01F0E6
:100D700005F8054605B1A846208800F40040B0F506
:100D8000004F09D106488830006820F08040616D2E
:100D900008430349C1F888004046BDE8F8830000D5
:100DA00000100240007000402DE9F04104460D465D
:100DB00014B90120BDE8F0816348006800F0070025
:100DC000A8420ED26048006820F0070028435E4920
:100DD00008600846006800F00700A84201D0012022
:100DE000E8E7207800F0020002280ED15749A068F9
:100DF000896801F0F001884207D95448806820F0E2
:100E0000F000A168084351498860207800F0010093
:100E100078B36068032806D14C48006800F0007081
:100E2000D8B90120C6E76068022806D147480068A3
:100E300000F4003088B90120BCE7606830B943484D
:100E4000006800F0020040B90120B3E73F480068A5
:100E500000F4806008B90120ACE73C48806820F0CD
:100E600003006168084339498860FFF7C7FC0646FC
:100E700009E010E0FFF7C2FC801B41F28831884294
:100E800001D9032096E73148806800F00C006168C2
:100E9000B0EB810FEED1207800F0020002280ED1D5
:100EA0002A49A068896801F0F001884207D22748E2
:100EB000806820F0F000A168084324498860224837
:100EC000006800F00700A8420ED91F48006820F013
:100ED000070028431C4908600846006800F0070026
:100EE000A84201D0012065E7207800F00400042822
:100EF00007D11648806820F4E060E1680843134990
:100F00008860207800F00800082808D10F48806821
:100F100020F46050216940EAC1000C49886000F06B
:100F200047F80A498968C1F30311094A515C01F085
:100F30001F01C8400749086007480068FFF780FCA8
:100F40000746384636E70000002002400010024005
:100F5000B446000810000020080000200148006886
:100F6000704700001000002000B5FFF7F7FF0549AB
:100F70008968C1F30221044A515C01F01F01C84095
:100F800000BD000000100240C446000800B5FFF795
:100F9000E5FF05498968C1F3C221044A515C01F0AB
:100FA0001F01C84000BD000000100240C4460008F8
:100FB000F0B500230020DFF8D4C0DCF808C00CF046
:100FC0000C01DFF8C8C0DCF80CC00CF0030719B145
:100FD0000C291ED1012F1CD1DFF8B0C0DCF800C0F5
:100FE0000CF0080CBCF1000F06D1DFF8A0C0DCF853
:100FF00094C0CCF3032305E0DFF890C0DCF800C018
:10100000CCF30313DFF888C05CF8233041B91846ED
:1010100006E0042901D11F4802E0082900D11E483A
:101020000C2932D1DFF864C0DCF80CC00CF00304EA
:10103000012C09D0022C02D0032C04D101E0154A66
:1010400004E0154A02E000BF1A4600BF00BFDFF807
:101050003CC0DCF80CC0CCF3021C0CF10106DFF83C
:101060002CC0DCF80CC0CCF3062C0CFB02FCBCFB47
:10107000F6F2DFF818C0DCF80CC0CCF3416C0CF1D0
:10108000010C4FEA4C05B2FBF5F0F0BD0010024038
:10109000CC4600080024F40000127A002DE9F84341
:1010A000044614B90120BDE8F883F948806800F0CF
:1010B0000C06F748C06800F00307207800F0100025
:1010C000102877D11EB10C2E76D1012F74D1F048A3
:1010D000006800F0020018B1A06908B90120E2E739
:1010E000EB48216A006800F0080020B1E848006879
:1010F00000F0F00005E0E6489430006800F470600D
:10110000000981421FD9206A00F0FCFE08B10120CD
:10111000C9E700BFDE48006840F00800DC4908600D
:101120000846006820F0F000216A0843D8490860AA
:1011300000BF0846406820F47F40E16940EA012092
:10114000D34948601FE000BFD148006840F0080064
:10115000CF4908600846006820F0F000216A084383
:10116000CB49086000BF0846406820F47F40E16931
:1011700040EA0120C64948602EB9206A00F0C2FE4C
:1011800008B101208FE7FFF713FFC1498968C1F358
:101190000311C04A515C01F01F01C840BE490860FC
:1011A000BE480068FFF74CFB8046B8F1000F4ED0F8
:1011B000404678E74BE0FFE7A06980B3B448006899
:1011C00040F00100B2490860FFF718FB054606E051
:1011D000FFF714FB401B022801D9032063E7AC484A
:1011E000006800F002000028F2D000BFA8480068A4
:1011F00040F00800A64908600846006820F0F000AA
:10120000216A0843A249086000BF0846406820F4EC
:101210007F40E16940EA01209D49486017E0FFE70F
:101220009B48006820F0010099490860FFF7E6FA42
:10123000054606E0FFF7E2FA401B022801D9032029
:1012400031E79348006800F002000028F2D12078CE
:1012500000F0010000285CD0082E03D00C2E0AD12B
:10126000032F08D18A48006800F4003088B3606812
:1012700078BB012017E700BF6068B0F5803F06D15A
:101280008348006840F48030814908601AE0606853
:10129000B0F5A02F0BD17E48006840F480207C4937
:1012A00008600846006840F4803008600AE078482A
:1012B000006820F48030764908600846006820F411
:1012C0008020086000BF606890B1FFF797FA05467C
:1012D00007E01EE0FFF792FA401B642801D90320C3
:1012E000E1E66B48006800F400300028F2D010E01E
:1012F000FFF784FA054606E0FFF780FA401B6428F2
:1013000001D90320CFE66248006800F400300028CD
:10131000F2D1207800F00200022852D1042E03D02E
:101320000C2E14D1022F12D15948006800F48060AD
:1013300018B1E06808B90120B5E65548406820F0CA
:10134000F850217C40EA01605149486039E0E0688A
:1013500000B34F48006840F480704D490860FFF7C3
:101360004DFA054606E0FFF749FA401B022801D96D
:10137000032098E64648006800F480600028F2D018
:101380004348406820F0F850217C40EA0160404921
:10139000486016E03E48006820F480703C490860D0
:1013A000FFF72CFA054606E0FFF728FA401B022853
:1013B00001D9032077E63648006800F480600028F1
:1013C000F2D1207800F00800082836D16069D0B149
:1013D0002F489430006840F001002D49C1F8940076
:1013E000FFF70CFA054606E0FFF708FA401B022853
:1013F00001D9032057E626489430006800F0020027
:101400000028F1D019E022489430006820F0010053
:101410001F49C1F89400FFF7F1F9054606E0FFF710
:10142000EDF9401B022801D903203CE6184894300E
:10143000006800F002000028F1D1207800F00400DC
:10144000042872D14FF000091148806D00F08050DF
:1014500078B900BF0E48806D40F080500C49886517
:101460000846806D00F08050009000BF00BF4FF034
:1014700001090B48006800F4807000BB0848006850
:1014800040F4807006490860FFF7B8F9054610E09F
:1014900000100240B44600081000002008000020A0
:1014A00000700040FFF7AAF9401B022801D9032071
:1014B000F9E5CA48006800F480700028F2D000BF47
:1014C000A068012808D1C648006840F00100C4495E
:1014D0009039C1F8900021E0A06805280FD1C048DC
:1014E000006840F00400BE499039C1F890000846F9
:1014F000D0F8900040F00100C1F890000EE0B8482C
:10150000006820F00100B6499039C1F89000084603
:10151000D0F8900020F00400C1F8900000BFA0684F
:10152000A0B1FFF76BF9054609E02EE0FFF766F979
:10153000401B41F28831884201D90320B3E5A84815
:10154000006800F002000028F0D012E0FFF756F922
:10155000054608E0FFF752F9401B41F28831884206
:1015600001D903209FE59E48006800F00200002892
:10157000F0D1B9F1010F07D199489038806D20F072
:10158000805097499039886500BF207800F020008E
:10159000202838D1606AD8B191480830006840F0FE
:1015A00001008F499039C1F89800FFF727F90546E7
:1015B00006E0FFF723F9401B022801D9032072E55A
:1015C00087480830006800F002000028F1D01AE0D7
:1015D00083480830006820F0010081499039C1F843
:1015E0009800FFF70BF9054606E0FFF707F9401BE7
:1015F000022801D9032056E579480830006800F038
:1016000002000028F1D1A06A00287DD0A06A02283B
:101610007BD173489038C76807F00301E06A8142C4
:1016200025D107F07001206B401EB1EB001F1ED1C9
:1016300007F4FE41606BB1EB002F18D107F0784141
:101640003820005DB1EBC06F11D107F4C001A08F4D
:101650000122C2EB5000B1EB405F08D107F0C0613E
:101660004020005DC2EB5000B1EB406F66D00C2E05
:1016700062D05B489038006800F0806008B10120BB
:1016800011E557489038006820F08070544990392F
:101690000860FFF7B3F8054606E0FFF7AFF8401B18
:1016A000022801D90320FEE44D489038006800F07C
:1016B00000700028F1D1D4E90B10401E41EA00115E
:1016C000606B41EA0021A08F0122C2EB500041EA89
:1016D00040514020005DC2EB500041EA406138209B
:1016E000005D41EAC0603E499039C9683D4A1140F9
:1016F00008433B499039C8600846006840F0807054
:1017000008600846C06801E053E03DE040F08070AA
:10171000C860FFF773F8054606E0FFF76FF8401B57
:10172000022801D90320BEE42D489038006800F05B
:1017300000700028F1D04FE00120B4E42848903830
:10174000006800F00070A0BB25489038006840F0A9
:1017500080702349903908600846C06840F0807066
:10176000C860FFF74BF8054606E0FFF747F8401B57
:10177000022801D9032096E419489038006800F047
:1017800000700028F1D027E00C2E23D014489038A8
:10179000006820F08070124990390860FFF72EF839
:1017A000054607E0FFF72AF8401B022802D903206C
:1017B00079E411E00A489038006800F000700028D1
:1017C000F0D107489038C06807490840044990396B
:1017D000C86001E0012066E4002064E4007000407D
:1017E000901002408C809D01FCFFEEFE70B5044617
:1017F0000CB9012070BD606A38B96068B0F5827FAD
:1018000000D105E00021E16102E000212161616178
:101810000021A16294F85D0028B9002084F85C00E2
:10182000204600F05BF8022084F85D002068006824
:1018300020F0400021680860E068B0F5E06F01D951
:10184000002501E04FF48055E068B0F5706F05D0D9
:10185000E068B0F5E06F01D00021A162A08800F43B
:101860008270218901F404410843217C01F00201C6
:101870000843217D01F001010843218B01F400712F
:101880000843217F01F0380108432021095D01F060
:1018900080010843218D01F400510843216808604C
:1018A0000421A06901EA104094F8241001F010010D
:1018B000084394F8341001F008010843A18901F4A9
:1018C0007061084305F48051084321684860002096
:1018D0002066012084F85D0000208BE710B586B0FB
:1018E0000446142101A8FEF7E5FD18492068884246
:1018F00029D100BF1648006E40F480501449086694
:101900000846006E00F48050009000BF00BF00BF8A
:101910000846C06C40F00100C8640846C06C00F086
:101920000100009000BF00BFC22001900220029081
:1019300000200390032004900520059001A94FF09A
:101940009040FEF775FE06B010BD0000003001406B
:101950000010024070B504462546681EB0F1807F35
:1019600001D301200FE0681E4FF0E02148610F21F4
:101970004FF0FF3000F060FE00204FF0E021886162
:1019800007200861002070BD10B504460CB9012085
:1019900010BDA06900B100E000BFE06F28B90020D1
:1019A00084F87800204600F029F82420E0672068B9
:1019B000006820F0010021680860606A10B12046CC
:1019C00000F040FB204600F05FFC012800D1DFE77B
:1019D0002068406820F49040216848602068806852
:1019E00020F02A00216888602068006840F001002B
:1019F00021680860204600F0A1FBC9E710B59EB041
:101A00000446142119A8FEF755FD5C2102A8FEF733
:101A100051FD64492068884235D1012002900020A0
:101A20000A9002A8FEF7FCFF08B1FEF7FDFD00BF1B
:101A30005D48006E40F480405B4908660846006ED1
:101A400000F48040019000BF00BF00BF0846C06C9A
:101A500040F00100C8640846C06C00F0010001902D
:101A600000BF00BF4FF4C060199002201A90002000
:101A70001B9003201C9007201D9019A94FF0904047
:101A8000FEF7D6FD8BE049492068884234D1022018
:101A9000029000200B9002A8FEF7C2FF08B1FEF7EB
:101AA000C3FD00BF4048806D40F400303E4988656A
:101AB0000846806D00F40030019000BF00BF00BFF9
:101AC0000846C06C40F00100C8640846C06C00F0D5
:101AD0000100019000BF00BF0C20199002201A9055
:101AE00000201B9003201C9007201D9019A94FF087
:101AF0009040FEF79DFD52E02D49206888424ED16E
:101B00000420029000200C9002A8FEF789FF08B183
:101B1000FEF78AFD00BF2448806D40F480202249F2
:101B200088650846806D00F48020019000BF00BFEA
:101B300000BF0846C06C40F00400C8640846C06C92
:101B400000F00400019000BF00BF00BF0846C06C59
:101B500040F00200C8640846C06C00F0020001902A
:101B600000BF00BF2020199002201A9000201B9077
:101B700003201C9007201D9019A90E48FEF758FD60
:101B80004FF48060199002201A9000201B900320CF
:101B90001C9007201D9019A90748FEF749FD1EB0AB
:101BA00010BD000000380140001002400044004019
:101BB00000480040000800480004004800BFFEE75D
:101BC00000B587B0142102A8FEF774FC00BF2348BB
:101BD000C06C40F004002149C8640846C06C00F0A5
:101BE0000400019000BF00BF00BF0846C06C40F079
:101BF0008000C8640846C06C00F08000019000BFFF
:101C000000BF00BF0846C06C40F00100C864084631
:101C1000C06C00F00100019000BF00BF00BF08468B
:101C2000C06C40F00200C8640846C06C00F00200BE
:101C3000019000BF00BF002210210948FEF7D8FD27
:101C4000102002900120039000200490059002A92A
:101C50000348FEF7EDFC07B000BD00000010024095
:101C60000008004810B51148114908604FF482700F
:101C7000486000210E4881604FF4E061C16000219E
:101C8000016101214161490281613021C16100216D
:101C90000162416281620721C162002101634163E7
:101CA000FFF7A4FD08B1FEF7BFFC10BD00300140F6
:101CB0009400002010B50D480D4908604FF4E13044
:101CC000486000210A488160C16001610C214161C6
:101CD00000218161C1610162002005494862084616
:101CE000FFF752FE08B1FEF79FFC10BD003801401F
:101CF000F800002010B50D480D4908604FF4E130A0
:101D0000486000210A488160C16001610C21416185
:101D100000218161C16101620020054948620846D5
:101D2000FFF732FE08B1FEF77FFC10BD0044004013
:101D30008001002010B50D480D4908604FF4E130D6
:101D4000486000210A488160C16001610C21416145
:101D500000218161C1610162002005494862084695
:101D6000FFF712FE08B1FEF75FFC10BD004800400F
:101D70000802002000BFFEE700BFFEE72DE9F041AA
:101D800004460F4600255B48C06800F0030090B190
:101D90005848C06800F003002168884209D12068D3
:101DA00038B15448C068C0F30210401C61688842D2
:101DB00033D0012531E02068012804D0022809D061
:101DC00003281AD10DE04B48006800F0020000B96A
:101DD000012514E04748006800F4806000B901253F
:101DE0000DE04448006800F4003028B9414800681C
:101DF00000F4802000B9012501E0012500BF00BFEB
:101E00005DB9D4E90010401E41EA00103949C968A3
:101E100021F0730108433749C860002D67D1354868
:101E2000006820F0806033490860FEF7E7FC064652
:101E300006E0FEF7E3FC801B022801D9032505E03C
:101E40002C48006800F000600028F2D100BFC5BB3C
:101E500067B9A0680002217B40EAC1602549096991
:101E6000254A114008432349086120E0012F0FD182
:101E7000A0680002218A0122C2EB510140EA4150D0
:101E80001C4909691D4A114008431A4908610EE0BE
:101E9000A0680002217D0122C2EB510140EA4160AD
:101EA00014490969164A114008431249086111484A
:101EB000006840F080600F490860FEF79FFC06460E
:101EC00007E014E0FEF79AFC801B022801D90325E5
:101ED00005E00848006800F000600028F2D000BF6C
:101EE0002DB904480069A1690843024908612846E0
:101EF000BDE8F08100100240FF80FF07FF809FFFD8
:101F0000FF80FFF9F8B5044600262348806D00F0F5
:101F1000805018B1FEF77CFD054616E000BF1E4854
:101F2000806D40F080501C4988650846806D00F047
:101F30008050009000BF00BFFEF76AFD05461648BE
:101F4000806D20F0805014498865B5F5007F07D179
:101F5000802C10D9A02C01D902260CE001260AE021
:101F6000802C01D9032606E0802C01D1022602E054
:101F7000702C00D101260948006820F0070030438A
:101F8000064908600846006800F00700B04201D02A
:101F90000120F8BD0020FCE70010024000200240B4
:101FA00000BF012000F082FBFBE710B5FEF72CFC20
:101FB00002F012F9012801D001F05CFD10BD00B55E
:101FC00097B0442106A8FEF775FA142101A8FEF780
:101FD00071FA4FF40070FEF7D5FC08B1FEF724FB50
:101FE0000120069000040790022010900321119117
:101FF00001211291142113910721149102211591AD
:10200000169106A8FFF74AF808B1FEF70DFB0F205E
:102010000190032002900020039004900590042179
:1020200001A8FEF7C1FE08B1FEF7FEFA17B000BD29
:102030000348006840F470000149086070470000E0
:1020400088ED00E090F8241001F00801082907D17C
:102050000168496821F40041426B114302685160F4
:1020600090F8241001F0010139B10168496821F4A8
:102070000031826A11430268516090F8241001F027
:102080000201022907D10168496821F48031C26A3E
:1020900011430268516090F8241001F004010429F2
:1020A00007D10168496821F48021026B114302685D
:1020B000516090F8241001F01001102907D1016837
:1020C000896821F48051826B11430268916090F815
:1020D000241001F02001202907D10168896821F42A
:1020E0000051C26B11430268916090F8241001F016
:1020F0004001402913D10168496821F48011026C24
:10210000114302685160016CB1F5801F07D101686D
:10211000496821F4C001426C11430268516090F893
:10212000241001F08001802907D10168496821F459
:102130000021826C114302685160704738B5044633
:102140000020C4F88400FEF759FB054620680068AB
:1021500000F00800082820D16FF07E402B460022B6
:102160004FF400110090204600F006FAA8B100BF1D
:1021700000BF216851E8001F21F08000226842E87A
:1021800000010029F5D100BF2020E06700BF00203A
:1021900084F8780000BF032038BD2068006800F094
:1021A0000400042830D16FF07E402B4600224FF40B
:1021B00080010090204600F0DFF928B300BF00BF87
:1021C000216851E8001F21F49070226842E8000164
:1021D0000029F5D100BF00BF00BF2168083151E8D8
:1021E000001F21F001002168083141E80002002AA7
:1021F000F3D100BF2020C4F8800000BF002084F885
:10220000780000BF0320C7E72020E067C4F8800003
:1022100000202066606600BF84F8780000BF00BF21
:10222000BAE700BF00BF026852E8002F22F49071A5
:10223000036843E80012002AF5D100BF00BF00BFC9
:102240000268083252E8002F22F0010102680832C9
:1022500042E80013002BF3D100BF016E01290CD11D
:1022600000BF00BF026852E8002F22F0100103688F
:1022700043E80012002AF5D100BF2021C0F88010E9
:1022800000210166816670472DE9F84F0446002061
:102290000090B2492068884200D100E000BF216967
:1022A000A068084361690843E16940EA010A2068BF
:1022B0000068AB49084040EA0A00216808602068CD
:1022C000406820F44050E168084321684860D4F831
:1022D00018A0A2492068884202D0206A40EA0A0A6F
:1022E0002068806820F4306040EA0A002168886035
:1022F00000BF9C492068884216D19B48006800F0C6
:10230000030030B1012808D0022804D0032808D1E6
:1023100005E0012507E0022505E0042503E0082586
:1023200001E0102500BF54E090492068884216D192
:102330008D48006800F00C0030B1042808D008284F
:1023400004D00C2808D105E0002507E0022505E0AF
:10235000042503E0082501E0102500BF39E0844989
:102360002068884216D18048006800F0300030B103
:10237000102808D0202804D0302808D105E00025F6
:1023800007E0022505E0042503E0082501E010250B
:1023900000BF1EE071492068884219D17248006868
:1023A00000F4406048B1B0F5806F0AD0B0F5006F1E
:1023B00005D0B0F5406F08D105E0002507E0022503
:1023C00005E0042503E0082501E0102500BF00E03A
:1023D000102500BF61492068884245D135B1022DE2
:1023E00008D0042D08D0082D0DD109E0FEF7BCFD62
:1023F00006460CE05F4E0AE0FEF7DAFD064606E010
:102400004FF4004603E000260120009000BF00BF0B
:10241000002E0AD0606800EB4000B04203D860682C
:102420000003B04202D20120009090E04FF480708F
:10243000A6FB0030D4F804C04FEA5C015F1840F1FD
:102440000001624600233846FDF770FF8146B9F56A
:10245000407F06D3B9F5801F03D22068C0F80C90E6
:1024600075E00120009072E0E069B0F5004F3AD1CC
:10247000092D17D2DFE805F005090D160F161616FF
:102480001300FEF771FD064610E0FEF77FFD0646DD
:102490000CE0384E0AE0FEF78BFD064606E04FF4EE
:1024A000004603E000260120009000BF00BF8EB36D
:1024B0007000616800EB5100B0FBF1F9B9F1100F49
:1024C0000ED3B9F5803F0BD24FF6F07009EA000B3E
:1024D000C9F342004BEA000B2068C0F80CB036E0AC
:1024E0000120009033E0092D18D2DFE805F005093E
:1024F0000D170F1717171400FEF736FD064611E0EB
:10250000FEF744FD06460DE01A4E0BE0FEF750FDC7
:10251000064607E01BE04FF4004603E000260120DA
:10252000009000BF00BF96B1606806EB5000616884
:10253000B0FBF1F9B9F1100F07D3B9F5803F04D220
:102540001FFA89F02168C86001E001200090002096
:10255000A066E0660098BDE8F88F000000800040AB
:10256000F369FFEF0038014088100240004400404A
:10257000004800400024F4002DE9F04104460D46D7
:1025800017469846069E41E0701C00283ED0FEF794
:1025900035F9A0EB0800B04200D816B90320BDE819
:1025A000F0812068006800F0040070B3802D2DD009
:1025B000402D2BD02068C069C0F3C00078B108203E
:1025C000216808622046FFF72CFE0820C4F884002A
:1025D00000BF002084F8780000BF0120DFE72068FA
:1025E000C069C0F3C02080B14FF400602168086268
:1025F0002046FFF716FE2020C4F8840000BF00200C
:1026000084F8780000BF0320C9E7FFE72068C069AD
:102610002840A84201D1012000E00020B842B3D0F8
:102620000020BCE700BFFEE702480068C0F30220BC
:10263000704700000CED00E010B5002804DB0A072D
:10264000130E054A135406E00A07140E034A00F05D
:102650000F031B1FD45410BD00E400E018ED00E090
:10266000EFF3058070470000FEF7DAF8FFF7A7FCEC
:10267000FFF7A6FAFFF7F6FAFFF71CFBFFF73AFBA6
:10268000FFF758FB00F022F8054A0021054800F04A
:1026900063F80549086000F02FF800BFFEE700006E
:1026A00090460008A11F00080000002070B50546F4
:1026B000FFF7D6FF10B16FF0050404E0002415B158
:1026C000284600F0FBFF204670BD000010B5FFF764
:1026D000C7FF10B16FF0050409E00648006820B993
:1026E000012004490860002401E04FF0FF34204637
:1026F00010BD00006400002070B5FFF7B1FF10B1FD
:102700006FF005041FE011480068012819D100BFCF
:10271000801F0021002804DB0A07130E0C4A135403
:1027200006E00A07150E0B4A00F00F031B1FD554D5
:1027300000BF00BF02200549086001F03BF80024FB
:1027400001E04FF0FF34204670BD0000640000201F
:1027500000E400E018ED00E02DE9FF4780468946DF
:10276000144600200390FFF77BFF00284ED1B8F1FC
:10277000000F4BD0802618258246471E44B32068A0
:1027800008B1D4F800A0A06900B1A5692DB1382D19
:1027900003D8207900F0010018B1002004B0BDE892
:1027A000F087606908B160698608A06840B1E06898
:1027B0005C2805D3206918B1606908B1012708E0D9
:1027C000A06830B9E06820B9206910B9002700E09E
:1027D0000027012F0CD12169A0684B463246CDE974
:1027E000005102905146404601F098FC03900DE0E4
:1027F00067B903A8B2B24B465146CDE900504046F6
:1028000001F05AFC012801D0002003900398C5E78D
:102810002DE9F04105460E4616480768164800683F
:10282000001D00F0C3FD681C38B936B112480168BC
:10283000091D124800F010FE1AE07C190E480068CD
:102840004460BC4207D20C480168091D0C4800686E
:1028500000F0E8FD0CE008480168091D094800681F
:1028600000F0E0FD08480068844201D20648046098
:10287000BDE8F0812800002014000020800700201F
:102880001C000020180000204400002010B5044661
:1028900000F0EEFD24480068401C234908602348EE
:1028A000006840B9214804600846006801280DD13D
:1028B00000F0FCF90AE01E48006838B91B480068BF
:1028C000C06AE16A884201D8184804601948006863
:1028D000401C184908600846006860641649E06AB0
:1028E0000968884202D91449E06A0860E16A01EB8C
:1028F0008101124A02EB8100211D00F0ADFD00F0C4
:10290000E1FD0B48006868B108480068C06AE16AE8
:10291000884207D24FF0805009490860BFF34F8FBB
:10292000BFF36F8F10BD00002400002014000020B2
:1029300030000020400000202C000020D0020020A9
:1029400004ED00E008B500F093FD12480068E8B916
:10295000114800F057FD114800F054FD0E48104991
:1029600008600E480F49086000200F4B0F4A1021E5
:1029700000900A2001F098F80649086008460068AF
:1029800020B10BA10348006800F05CFE00F09AFD46
:1029900008BD00005800002094070020A807002070
:1029A0005000002054000020BC0700200C0800202C
:1029B000546D72510000000010B516E000F058FD93
:1029C0000C48C068C468201D00F0F0FC0A4800688C
:1029D000401E0949086009480068401E0749086010
:1029E00000F070FD204600F05FF804480068002801
:1029F000E4D110BD6C07002024000020200000203E
:102A000070B504460D46206C70B1216CE06801443D
:102A1000E160D4E90210884201D32168E1602846D0
:102A2000226CE168FDF7F9FC70BD2DE9F041044628
:102A30000F4615464FF00008A66B206C48B9206879
:102A400000282CD1A06801F07FFC80460020A06007
:102A500025E07DB93946226C6068FDF7DEFC216C0B
:102A6000606808446060D4E90101884217D3206897
:102A7000606014E03946226CE068FDF7CEFC216C02
:102A8000E068411AE1602168E068884203D2216C65
:102A9000A068411AE160022D01D106B1761E701CBA
:102AA000A0634046BDE8F08110B5044694F8590093
:102AB00030B9206B00F024FD204600F021FD1AE023
:102AC00094F85900012803D1204600F019FD12E0C6
:102AD00094F85900022801D1012000E0002050B9EB
:102AE00000BF502080F31188BFF34F8FBFF36F8F6B
:102AF00000BF00BFFEE710BD0146084A1268126819
:102B00000AB9012200E000220A600A6822B9034AD9
:102B10001268D268106800E0002070475000002062
:102B200030B540F6B833174800F007042CB1C01D8B
:102B300020F00700134C041B1B1B0246124C2260A2
:102B40000024114D6C60D018083820F007000F4C9D
:102B5000206000240D4D2D686C600C4D2D682C609C
:102B60001146441A4C60094C24680C60084D4C68AE
:102B70002C60084D4C682C604FF00044064D2C60D2
:102B800030BD0000640F00206800002070000020AD
:102B900078000020740000208400002000BFFFF7B0
:102BA0000BFF064800680128F9D94FF0805004490E
:102BB0000860BFF34F8FBFF36F8FF0E7D0020020A4
:102BC00004ED00E02DE9F04106460D461746984613
:102BD000069C0DB9246000E02760E66325640121AE
:102BE000204600F0D1FF84F84C80BDE8F0812DE94B
:102BF000F05F82460E4690469B460A9F0C9C4FEA29
:102C00008801A522206BFDF74DFCA8F10100216B86
:102C100001EB800929F0070909F0070008B9012034
:102C200000E0002050B900BF502080F31188BFF3AE
:102C30004F8FBFF36F8F00BF00BFFEE786B1002547
:102C400007E0715D04F134004155705D00B902E0A8
:102C50006D1C102DF5D300BF00214320015502E06B
:102C6000002084F83400382F00D33727E762E76468
:102C700000202065201D00F0D2FB04F1180000F0B8
:102C8000CEFB2461C7F13800A0616462002060655A
:102C900084F858005A465146484600F071FB2060BF
:102CA0000B9808B10B980460BDE8F09F10B50024A4
:102CB00007E004EB84010F4A02EB810000F0A2FB65
:102CC000641C382CF5D30C4800F09CFB0B4800F03A
:102CD00099FB0B4800F096FB0A4800F093FB0A486A
:102CE00000F090FB0448094908600448084908605E
:102CF00010BD0000D0020020300700204407002053
:102D0000580700206C0700208007002018000020D2
:102D10001C00002010B50146164800E0006803685A
:102D20008B42FBD30246436813448B4204D1436871
:102D30004C682344436001460A464B6813440468C8
:102D4000A34211D10C4C03682468A34208D04B68FD
:102D50000468646823444B6003681B680B6005E0EB
:102D6000054B1B680B6001E003680B60884200D0D4
:102D7000016010BD68000020700000202DE9F041C6
:102D800004460D4616461F464FF000086560246154
:102D9000B5420CD8F01BA169884202D34FF001085C
:102DA00011E0211D0948006800F03CFB0BE0BE4229
:102DB00004D2BD4202D34FF0010804E0211D0448B3
:102DC000006800F02FFB4046BDE8F0815400002071
:102DD0005000002070B5054600F04AFBA86B08B90A
:102DE000012400E0002400F06DFB204670BD70B5AA
:102DF000054600F03DFBA86BE96B884201D1012438
:102E000000E0002400F05EFB204670BDF8B50546EA
:102E10000F461A480068C068C468201D00F0C6FA52
:102E200094F8280000F00400E8B1A06941192B468D
:102E30003A462046FFF7A2FFD8B1002003462A46B3
:102E400001460090204601F0DBFB064656B900BF64
:102E5000502080F31188BFF34F8FBFF36F8F00BFF7
:102E600000BFFEE705E094F8280020F0010084F898
:102E700028002046216A8847F8BD00005000002045
:102E8000F0B587B0A0E00398002811DA04AE56B977
:102E900000BF502080F31188BFF34F8FBFF36F8FB7
:102EA00000BF00BFFEE7D6E90020B168904700BF31
:102EB00003980028E6DB059C606908B9012000E062
:102EC000002010B9201D00F071FA02A800F0DEF811
:102ED000054603980A2875D2DFE800F0090507398E
:102EE000416306083A4200BF00BF00BF00BF94F82C
:102EF000280040F0010084F828000498A269811895
:102F000003462A462046FFF739FFF8B12046216ADA
:102F1000884794F8280000F00400B8B10020009021
:102F20000498A169421800231946204601F068FB65
:102F3000074657B900BF502080F31188BFF34F8F69
:102F4000BFF36F8F00BF00BFFEE700BF3BE000BFD5
:102F500094F8280020F0010084F8280033E000BF36
:102F600094F8280040F0010084F828000498A0613B
:102F7000A06908B1012000E0002050B900BF502036
:102F800080F31188BFF34F8FBFF36F8F00BF00BF77
:102F9000FEE7A06941192B462A462046FFF7EEFEC0
:102FA00011E094F8280000F0020018B9204600F063
:102FB000A7FA05E094F8280020F0010084F8280022
:102FC00001E0FFE700BF00BF002203A9044800683A
:102FD00000F078FF00287FF456AF07B0F0BD000086
:102FE00058000020F8B505460C4600F03FFC684646
:102FF00000F04CF80646009820BB44B9B54206D80C
:1030000001F040FA31462846FFF700FF1CE03CB1D2
:103010000E480068006808B9012000E0002004465E
:10302000A91B22460A48006800F022FB01F02AFA98
:1030300050B94FF0805007490860BFF34F8FBFF37E
:103040006F8F01E001F01EFAF8BD0000540000206F
:103050005800002004ED00E00A490968096809B930
:10306000012100E0002121B14FF0FF31064A11603B
:1030700006E004490968C968C868034A41681160E4
:1030800070470000180000204400002070B504467E
:1030900001F0B2F8054607480068854204D200F006
:1030A0000BF80120206001E000202060014805604D
:1030B000284670BD600000202DE9F84334E0254823
:1030C0000068C068056823480068C068C468201D9F
:1030D00000F06CF92046216A884794F8280000F037
:1030E000040008B3A0694619AE4207D9666024619E
:1030F000211D1848006800F095F915E000200346EE
:103100002A4601460090204601F07AFA074657B950
:1031100000BF502080F31188BFF34F8FBFF36F8F34
:1031200000BF00BFFEE700BF0A480068006808B99A
:10313000012000E000200028C1D00648D0F800801F
:1031400005480068034908600348C0F80080BDE8EE
:10315000F883000050000020540000200E48006852
:10316000401C08B9012000E0002050B900BF5020E9
:1031700080F31188BFF34F8FBFF36F8F00BF00BF85
:10318000FEE700BF502080F31188BFF34F8FBFF3DD
:103190006F8F00BF00BFFEE78800002008B500BFAA
:1031A0006846FFF7A9FC044620460099FFF71AFF7E
:1031B000FFF766FEF4E770B5044600F059F994F99C
:1031C000455010E0606A08B9012000E0002038B9DD
:1031D00004F1240001F00AF918B100F0A9FA00E0A6
:1031E00003E0681E45B2002DECDC00BFFF2084F830
:1031F000450000F067F900F03BF994F9445010E005
:10320000206908B9012000E0002048B904F110004D
:1032100001F0ECF808B100F08BFA681E45B200E04E
:1032200001E0002DECDC00BFFF2084F8440000F03A
:1032300049F970BD2DE9F04104464FF0000800F057
:1032400015FB4948006808B9FFF76AFC4748006861
:103250002040002870D1D4B1083404F00700B0B188
:1032600004F00700C0F10800044404F0070008B9A6
:10327000012000E0002050B900BF502080F31188E9
:10328000BFF34F8FBFF36F8F00BF00BFFEE7002C6F
:1032900052D03748006884424ED8364E30460568D2
:1032A00001E02E462D686868A04202D228680028F6
:1032B000F7D12D48006885423ED0306800F10808FB
:1032C000286830606868001B102819D92F1907F08A
:1032D000070008B9012000E0002050B900BF5020CD
:1032E00080F31188BFF34F8FBFF36F8F00BF00BF14
:1032F000FEE76868001B78606C603846FFF70AFDDF
:103300001B4968680968081A194908600846006876
:1033100019490968884203D21548006816490860AF
:1033200012496868096808436860002028601348EB
:103330000068401C1149086001F0A4F808F007007B
:1033400008B9012000E0002050B900BF502080F3F0
:103350001188BFF34F8FBFF36F8F00BF00BFFEE731
:103360004046BDE8F081000070000020840000208D
:103370007400002068000020780000207C000020FD
:10338000001F4FF080730360001F21F001030360F2
:10339000001F054B036014380260001F6FF002032A
:1033A00003602038704700005D31000801460A695B
:1033B000D1E901309860D1E9010358605068884232
:1033C00001D188685060002008611068401E1060BC
:1033D00010687047034B0360034B0B60802313603E
:1033E00070470000AC08002008090020034B036070
:1033F000034B0B604FF4807313607047080B002081
:10340000640B002000F1080141604FF0FF31816042
:1034100000F10801C16001610021016070470021D5
:103420000161704710B502460B685C1C0CB910694D
:1034300007E002F1080000E04068446824689C420C
:10344000FAD944684C604C68A160886041600A61A8
:103450001468641C146010BD42684A6093688B60F5
:10346000936859609160086103685B1C0360704752
:1034700000BF502080F31188BFF34F8FBFF36F8FD1
:1034800000BF0E480068401C0C49086008460068F0
:10349000012812D10A480068C0B208B9012000E032
:1034A000002050B900BF502080F31188BFF34F8F28
:1034B000BFF36F8F00BF00BFFEE77047880000209A
:1034C00004ED00E00D48006850B900BF502080F3C3
:1034D0001188BFF34F8FBFF36F8F00BF00BFFEE7B0
:1034E00006480068401E054908600846006820B983
:1034F000002080F3118800BF00BF704788000020C3
:1035000070B506463546002E44D0083D2C4622496B
:1035100060680968084008B1012000E0002050B947
:1035200000BF502080F31188BFF34F8FBFF36F8F20
:1035300000BF00BFFEE7206808B9012000E00020BE
:1035400050B900BF502080F31188BFF34F8FBFF3F5
:103550006F8F00BF00BFFEE70F4960680968084031
:10356000C0B12068B0B90C496068096888436060E0
:1035700000F07CF909496068096808440749086057
:103580002046FFF7C7FB06480068401C0449086056
:1035900000F078FF70BD000084000020740000205F
:1035A0008000002000204FF0E0210861886106487B
:1035B00000684FF47A71B0FBF1F0401E4FF0E0214B
:1035C00048610720086170471000002070B5FCF7C3
:1035D00089FE0446102C16D304F1E02090F8F05335
:1035E00015480078854201DB012000E0002050B939
:1035F00000BF502080F31188BFF34F8FBFF36F8F50
:1036000000BF00BFFEE70D48006800F4E0600C4911
:103610000968884201D8012000E0002050B900BFAD
:10362000502080F31188BFF34F8FBFF36F8F00BF1F
:1036300000BFFEE770BD00008C0000200CED00E034
:1036400090000020024600200BE0084B53F8303079
:1036500033B9064B43F8301003EBC0035A6002E065
:10366000401C0828F1D300BF7047000090020020E2
:103670002DE9F04105460E4617462C46FFF7F8FEA9
:1036800094F94400401C10B9002084F8440094F9D7
:103690004500401C10B9002084F84500FFF712FFD8
:1036A000A06B28B93A46314604F1240000F062F8D4
:1036B0002046FFF780FDBDE8F081000070B50446AC
:1036C0000025D4B11248006808B9012000E00020AC
:1036D00050B900BF502080F31188BFF34F8FBFF364
:1036E0006F8F00BF00BFFEE700F0C0F8002120464A
:1036F000FFF78EF800F0C6FE05463DB94FF080504A
:1037000004490860BFF34F8FBFF36F8F70BD000097
:103710004C00002004ED00E0034909680160034902
:1037200009684160704700003C000020280000202C
:1037300001200149086070473800002070B5044638
:103740000D4654B900BF502080F31188BFF34F8F4E
:10375000BFF36F8F00BF00BFFEE705480168183157
:103760002046FFF75FFE01212846FFF751F870BDA4
:103770001400002070B505460E46144655B900BF2A
:10378000502080F31188BFF34F8FBFF36F8F00BFBE
:1037900000BFFEE70648016818312846FFF75CFEC7
:1037A0000CB14FF0FF3621463046FFF731F870BDBF
:1037B0001400002010B586B000200590049003AAE4
:1037C00004A905A8FFF706FE0022DDE90410134650
:1037D000CDE9002102901EA11F48039A00F09EFC33
:1037E0001E4908600846006808B1012400E0002472
:1037F000012C02D100F0C8FE0446012C15D100BFF7
:10380000502080F31188BFF34F8FBFF36F8F00BF3D
:103810004FF0FF3012490860012012490860002073
:103820001149086000F072F810E0601C08B1012036
:1038300000E0002050B900BF502080F31188BFF392
:103840004F8FBFF36F8F00BF00BFFEE706B010BD04
:1038500049444C45000000009D2B00084800002012
:1038600044000020300000202800002002480068AA
:10387000401C0149086070474C0000201E48006849
:1038800018B101201D49086034E000201B49086080
:103890001B4801680CE051B900BF502080F311882B
:1038A000BFF34F8FBFF36F8F00BF00BFFEE7491E0E
:1038B00001EB8100134A52F8200008B9012000E012
:1038C00000200028E7D101EB81020E4B03EB8200C0
:1038D00042685268426000F108024368934202D194
:1038E0004268526842604268D268074B1A600448D6
:1038F000016000BF704700004C000020380000202D
:103900002C000020D0020020140000201CB55248DA
:1039100000685249884201D0012000E0002050B9DF
:1039200000BF502080F31188BFF34F8FBFF36F8F1C
:1039300000BF00BFFEE7484800684849491E88426A
:1039400001D0012000E0002050B900BF502080F3DA
:103950001188BFF34F8FBFF36F8F00BF00BFFEE72B
:103960003F49084600780190FF200A46107008463B
:10397000007800909DF8000000F0F0009DF8002015
:10398000904201D1012000E0002050B900BF50203A
:1039900080F31188BFF34F8FBFF36F8F00BF00BF5D
:1039A000FEE79DF8000000F050002E4A107007203E
:1039B0002D4A106009E02C480068401E2A4A106019
:1039C0009DF800004006000E00909DF8000000F0F9
:1039D00080008028EFD024480068C0F10700042848
:1039E00001D1012000E0002050B900BF502080F339
:1039F0001188BFF34F8FBFF36F8F00BF00BFFEE78B
:103A0000194800680002184A10601046008800F447
:103A1000E0601060124A019810700F482030006872
:103A200040F470000C49203108600846006840F0FE
:103A300070400860FFF7B6FD00200C490860FCF7F5
:103A400019FC0B48006840F0404009490860FCF749
:103A5000FDFB00201CBD000000ED00E071C20F4125
:103A600000E400E08C00002090000020880000208E
:103A700034EF00E010B500BF502080F31188BFF391
:103A80004F8FBFF36F8F00BF00F0BCFB18B14FF03A
:103A900080500449086000BF002080F3118800BFF7
:103AA00010BD000004ED00E02DE9F84380460E460D
:103AB00017461D46DDF82090B8F1000F01D0012017
:103AC00000E0002050B900BF502080F31188BFF300
:103AD0004F8FBFF36F8F00BF00BFFEE70DB1012016
:103AE00000E0002050B900BF502080F31188BFF3E0
:103AF0004F8FBFF36F8F00BF00BFFEE707B10EB15E
:103B0000012000E0002050B900BF502080F3118850
:103B1000BFF34F8FBFF36F8F00BF00BFFEE707B942
:103B20000EB9012000E0002050B900BF502080F302
:103B30001188BFF34F8FBFF36F8F00BF00BFFEE749
:103B4000502000900098502801D1012000E0002072
:103B500050B900BF502080F31188BFF34F8FBFF3DF
:103B60006F8F00BF00BFFEE700BF2C464CB10120A5
:103B700084F846004B463A46314640460094FFF7EB
:103B800021F82046BDE8F88370B505460E462C4660
:103B900054B900BF502080F31188BFF34F8FBFF39B
:103BA0006F8F00BF00BFFEE7FFF762FCD4E90F1282
:103BB000206801FB0200A0600020A0632068606014
:103BC000E06B401E226C216800FB0211E160FF20C7
:103BD00084F8440084F845009EB9206908B90120A2
:103BE00000E00020A8B904F1100000F0FFFB80B154
:103BF0004FF0805009490860BFF34F8FBFF36F8FBC
:103C000007E004F11000FFF7FDFB04F12400FFF7CB
:103C1000F9FBFFF757FC012070BD000004ED00E048
:103C20002DE9FF4383B0064688461D464FF0000944
:103C3000344654B900BF502080F31188BFF34F8F32
:103C4000BFF36F8F00BF00BFFEE7B8F1000F01D1D7
:103C5000206C08B9012000E0002050B900BF5020BE
:103C600080F31188BFF34F8FBFF36F8F00BF00BF8A
:103C7000FEE7022D02D1E06B012801D1012000E016
:103C8000002050B900BF502080F31188BFF34F8F40
:103C9000BFF36F8F00BF00BFFEE700F09DFA08B9C9
:103CA000059808B9012000E0002050B900BF50205D
:103CB00080F31188BFF34F8FBFF36F8F00BF00BF3A
:103CC000FEE700BFFFF7D4FBA06BE16B884201D396
:103CD000022D28D12A4641462046FEF7A6FE074679
:103CE000606A08B9012000E0002068B904F12400EE
:103CF00000F07CFB88B14FF0805032490860BFF380
:103D00004F8FBFF36F8F08E03FB14FF080502D49C8
:103D10000860BFF34F8FBFF36F8FFFF7D3FB012016
:103D200007B0BDE8F083059818B9FFF7CBFB00207A
:103D3000F6E7B9F1000F04D101A8FFF7EDFC4FF051
:103D40000109FFF7BFFBFFF791FDFFF791FB94F926
:103D50004400401C10B9002084F8440094F9450048
:103D6000401C10B9002084F84500FFF7ABFB05A903
:103D700001A800F05BF9F0B92046FFF738F8A0B1D0
:103D800004F110000599FFF7D9FC2046FFF713FA5C
:103D900000F078FB002895D14FF080500949086069
:103DA000BFF34F8FBFF36F8F8CE72046FFF703FA07
:103DB00000F068FB86E72046FFF7FDF900F062FBA4
:103DC0000020ADE704ED00E02DE9F84F07468A46F4
:103DD00090461E463C4654B900BF502080F31188DF
:103DE000BFF34F8FBFF36F8F00BF00BFFEE7BAF185
:103DF000000F01D1206C08B9012000E0002050B96B
:103E000000BF502080F31188BFF34F8FBFF36F8F37
:103E100000BF00BFFEE7022E02D1E06B012801D1F6
:103E2000012000E0002050B900BF502080F311882D
:103E3000BFF34F8FBFF36F8F00BF00BFFEE7FFF7E9
:103E4000C5FB00BF5021EFF3118081F31188BFF350
:103E50004F8FBFF36F8F00BF0546A06BE16B8842A9
:103E600001D3022E25D194F945B0A06B00903246C3
:103E700051462046FEF7D9FD0BF1010088B9606A72
:103E800008B9012000E0002050B904F1240000F03E
:103E9000ADFA28B1B8F1000F02D00120C8F8000037
:103EA00004E00BF1010040B284F845004FF0010935
:103EB00001E04FF0000900BF85F3118800BF4846BC
:103EC000BDE8F88F2DE9F74183B005460E464FF067
:103ED00000082C4654B900BF502080F31188BFF36E
:103EE0004F8FBFF36F8F00BF00BFFEE70EB9206C8E
:103EF00008B9012000E0002050B900BF502080F335
:103F00001188BFF34F8FBFF36F8F00BF00BFFEE775
:103F100000F062F908B9059808B9012000E0002016
:103F200050B900BF502080F31188BFF34F8FBFF30B
:103F30006F8F00BF00BFFEE700BFFFF799FAA76BC6
:103F4000F7B131462046FEF75BFD781EA06320697D
:103F500008B9012000E0002060B904F1100000F071
:103F600045FA38B14FF080502F490860BFF34F8FAA
:103F7000BFF36F8FFFF7A6FA012006B0BDE8F0810E
:103F8000059818B9FFF79EFA0020F6E7B8F1000F80
:103F900004D101A8FFF7C0FB4FF00108FFF792FA28
:103FA000FFF764FCFFF764FA94F94400401C10B971
:103FB000002084F8440094F94500401C10B900200A
:103FC00084F84500FFF77EFA05A901A800F02EF855
:103FD000F0B92046FEF7FEFEA0B104F124000599D9
:103FE000FFF7ACFB2046FFF7E6F800F04BFA00289D
:103FF000A3D14FF080500C490860BFF34F8FBFF33F
:104000006F8F9AE72046FFF7D6F800F03BFA94E767
:104010002046FFF7D0F800F035FA2046FEF7DAFE2A
:1040200000288AD00020A8E704ED00E070B505461E
:104030000C4655B900BF502080F31188BFF34F8F55
:10404000BFF36F8F00BF00BFFEE754B900BF502021
:1040500080F31188BFF34F8FBFF36F8F00BF00BF96
:10406000FEE7FFF705FA124802686868131A20682D
:10407000401C08B9002617E00E49286809688842E4
:1040800004D06868904201D801260DE0206898426B
:1040900007D92068C01A20602846FFF73DFB00269C
:1040A00002E0002020600126FFF70CFA304670BDC8
:1040B000280000203C0000202DE9FF4F85B08046FD
:1040C00089461746DDE912ABB800FFF7B3F806469C
:1040D00056B15C20FFF7AEF804460CB1266304E04D
:1040E0003046FFF70DFA00E000248CB1002084F880
:1040F0005900CDE900ABCDE902403A464946404679
:10410000089BFEF774FD2046FEF7C0FB012501E089
:104110004FF0FF35284609B0BDE8F08F2DE9F04F8C
:1041200085B00746884691469A46DDE90EB6109C52
:104130000EB1012000E0002050B900BF502080F3F4
:104140001188BFF34F8FBFF36F8F00BF00BFFEE733
:104150000CB1012000E0002050B900BF502080F3D6
:104160001188BFF34F8FBFF36F8F00BF00BFFEE713
:104170005C20039003985C2801D1012000E000201E
:1041800050B900BF502080F31188BFF34F8FBFF3A9
:104190006F8F00BF00BFFEE700BFB4B1AEB12546D0
:1041A0002C462E63022085F85900002004A95346AE
:1041B0004A46CDE900B1CDE9025041463846FEF706
:1041C00016FD2846FEF762FB01E0002004900498EB
:1041D00005B0BDE8F08F00000549096809B9012064
:1041E00005E00449096809B9022000E00020704791
:1041F000300000204C000020014908687047000092
:10420000280000202DE9F0414FF0000843480068E5
:1042100000287BD142480068451C4148056015BB19
:1042200040480068006808B9012000E0002050B94B
:1042300000BF502080F31188BFF34F8FBFF36F8F03
:1042400000BF00BFFEE737480768374800683549B8
:1042500008603548076035480068401C33490860ED
:10426000FEF7FAFE00BF3248006885423BD300BF2C
:104270002C480068006808B9012000E0002020B147
:104280004FF0FF302A4908602CE026480068C068DB
:10429000C4686668B54202D22548066022E0201D47
:1042A000FFF784F8A06A18B104F11800FFF77EF850
:1042B0002049E06A0968884202D91E49E06A08601C
:1042C000E16A01EB81011C4A02EB8100211DFFF72D
:1042D000C3F81A49E06A0968C96A8842C8D34FF02E
:1042E0000108C5E700BF15480068C06A00EB800000
:1042F000114951F82000012801D94FF00108104858
:10430000006808B14FF0010805E0FFE70D480068BC
:10431000401C0C4908604046BDE8F0814C0000207C
:1043200028000020180000201C0000203C00002075
:10433000440000202C000020D002002014000020A7
:10434000380000203400002070B505462C460026B9
:10435000002D43D022480068844201D1012000E0B2
:10436000002050B900BF502080F31188BFF34F8F59
:10437000BFF36F8F00BF00BFFEE7206D50B900BFD5
:10438000502080F31188BFF34F8FBFF36F8F00BFB2
:1043900000BFFEE7206D401E2065E16CE06A8842A8
:1043A0001CD0206DD0B9201DFFF700F8E06CE06252
:1043B000E06AC0F13800A0610A49E06A09688842F1
:1043C00002D90849E06A0860E16A01EB8101064A06
:1043D00002EB8100211DFFF73FF80126304670BD3A
:1043E000140000202C000020D002002070B50646EA
:1043F000F068C46854B900BF502080F31188BFF33F
:104400004F8FBFF36F8F00BF00BFFEE704F11800AE
:10441000FEF7CCFF15480068A0B9201DFEF7C6FFC7
:104420001349E06A0968884202D91149E06A0860C4
:10443000E16A01EB81010F4A02EB8100211DFFF7C8
:104440000BF804E004F118010B48FFF705F80B49DD
:10445000E06A0968C96A884204D90125012008492F
:10446000086000E00025284670BD00004C000020D8
:104470002C000020D002002058070020140000204B
:104480003800002070B5002400263648006850B976
:1044900000BF502080F31188BFF34F8FBFF36F8FA1
:1044A00000BF00BFFEE7FEF7E3FF2E480068401E96
:1044B0002C4908600846006800284ED12A48006848
:1044C00000284AD023E02948C068C46804F11800D5
:1044D000FEF76CFF201DFEF769FF2549E06A0968B9
:1044E000884202D92249E06A0860E16A01EB810151
:1044F000204A02EB8100211DFEF7AEFF1E49E06A53
:104500000968C96A884202D301201C49086017481B
:10451000006808B9012000E000200028D3D00CB1C9
:10452000FEF79AFD1648056865B100BFFFF76AFE01
:1045300010B10120114908606D1E002DF6D1002038
:104540000F4908600D48006838B1012630070D4951
:104550000860BFF34F8FBFF36F8FFEF7B3FF304696
:1045600070BD00004C0000202400002058070020EF
:104570002C000020D0020020140000203800002071
:104580003400002004ED00E010B586B00024FEF7F2
:10459000D9F916480068D0B100200590049003AA0C
:1045A00004A905A8FEF722FF0222DDE9041000237A
:1045B000CDE9002102900EA10F48039AFFF7AEFD4E
:1045C0000E4908600846006800B1012400BF54B9D4
:1045D00000BF502080F31188BFF34F8FBFF36F8F60
:1045E00000BF00BFFEE7204606B010BD5800002007
:1045F000546D7220537663009D3100085C000020EA
:104600002DE9FF4704460D4616461F46DDF830806B
:104610004FF0000954B900BF502080F31188BFF358
:104620004F8FBFF36F8F00BF00BFFEE714480068D5
:1046300010B3009501960294062D15DAFFF7CCFD14
:10464000022808D10023424669460D480068FFF75A
:10465000E7FA814610E000231A46694608480068D8
:10466000FFF7DEFA814607E000233A466946044830
:104670000068FFF7A9FB8146484604B0BDE8F08713
:10468000580000204FF04070E1EE100A7047000023
:10469000FC460008000000000000000000000000D0
:1046A00000000000000200001800000000000000F0
:1046B00000000000000000000000000001020304F0
:1046C000060708090000000001020304A08601009B
:1046D000400D0300801A060000350C0040420F0018
:1046E00080841E0000093D0000127A000024F400BE
:1046F00000366E010048E801006CDC02646566610A
:10470000756C745461736B0028470008000000202A
:1047100094000000C8010008BC4700089400002075
:10472000EC200000E4010008000000000000000090
:10473000100000000100000000093D000000000022
:104740000000000000000000000000000000000069
:104750000000000000000000000000000000000059
:104760000000000000000000000000000000000049
:104770000000000000000000000000000000000039
:104780000000000000000000000000000000000029
:104790000000000000000000000000000000000019
:1047A0000000000000000000000000000000000009
:0C47B000AAAAAAAA000000000000000055
:040000050800018D61
:00000001FF
